:020000040000fa
:080000000002040000000000f2
:020000040000fa
:0400080016030000db
:020000040000fa
:04000c005803000095
:020000040000fa
:04001000b803000031
:020000040000fa
:0400140036030000af
:020000040000fa
:040018007803000069
:020000040000fa
:04001c009803000045
:020000040000fa
:04002000d803000001
:020000040000fa
:040024002c050000a7
:020000040000fa
:040028002c050000a3
:020000040000fa
:04002c002c0500009f
:020000040000fa
:040030002c0500009b
:020000040000fa
:04003400f6040000ce
:020000040000fa
:04003800240400009c
:020000040000fa
:04003c002c0500008f
:020000040000fa
:040040002c0500008b
:020000040000fa
:040044002c05000087
:020000040000fa
:040048002c05000083
:020000040000fa
:04004c002c0500007f
:020000040000fa
:040050002c0500007b
:020000040000fa
:040054002c05000077
:020000040000fa
:040058002c05000073
:020000040000fa
:04005c002c0500006f
:020000040000fa
:040060002c0500006b
:020000040000fa
:040064002c05000067
:020000040000fa
:040068002c05000063
:020000040000fa
:04006c002c0500005f
:020000040000fa
:040070002c0500005b
:020000040000fa
:040074002c05000057
:020000040000fa
:040078002c05000053
:020000040000fa
:04007c002c0500004f
:020000040000fa
:040080002c0500004b
:020000040000fa
:040084002c05000047
:020000040000fa
:04008800420400002e
:020000040000fa
:04008c002c0500003f
:020000040000fa
:040090002c0500003b
:020000040000fa
:040094002c05000037
:020000040000fa
:040098002c05000033
:020000040000fa
:04009c002c0500002f
:020000040000fa
:0400a0002c0500002b
:020000040000fa
:0400a4002c05000027
:020000040000fa
:0400a8002c05000023
:020000040000fa
:0400ac002c0500001f
:020000040000fa
:0400b000ee0400005a
:020000040000fa
:0400b40060040000e4
:020000040000fa
:0400b8002c05000013
:020000040000fa
:0400bc002c0500000f
:020000040000fa
:0400c0002c0500000b
:020000040000fa
:0400c4002c05000007
:020000040000fa
:0400c8002c05000003
:020000040000fa
:0400cc002c050000ff
:020000040000fa
:0400d0002c050000fb
:020000040000fa
:0400d4002c050000f7
:020000040000fa
:0400d8002c050000f3
:020000040000fa
:0400dc002c050000ef
:020000040000fa
:0400e0002c050000eb
:020000040000fa
:0400e4002c050000e7
:020000040000fa
:0400e8002c050000e3
:020000040000fa
:0400ec002c050000df
:020000040000fa
:0400f0002c050000db
:020000040000fa
:0400f4002c050000d7
:020000040000fa
:0400f8002c050000d3
:020000040000fa
:0400fc002c050000cf
:020000040000fa
:040100002c050000ca
:020000040000fa
:040104002c050000c6
:020000040000fa
:040108002c050000c2
:020000040000fa
:04010c002c050000be
:020000040000fa
:040110002c050000ba
:020000040000fa
:040114002c050000b6
:020000040000fa
:040118002c050000b2
:020000040000fa
:04011c002c050000ae
:020000040000fa
:040120002c050000aa
:020000040000fa
:040124002c050000a6
:020000040000fa
:040128002c050000a2
:020000040000fa
:04012c002c0500009e
:020000040000fa
:040130002c0500009a
:020000040000fa
:040134002c05000096
:020000040000fa
:040138002c05000092
:020000040000fa
:04013c002c0500008e
:020000040000fa
:040140002c0500008a
:020000040000fa
:040144002c05000086
:020000040000fa
:040148002c05000082
:020000040000fa
:04014c002c0500007e
:020000040000fa
:040150002c0500007a
:020000040000fa
:040154002c05000076
:020000040000fa
:040158002c05000072
:020000040000fa
:04015c002c0500006e
:020000040000fa
:040160002c0500006a
:020000040000fa
:040164002c05000066
:020000040000fa
:040168002c05000062
:020000040000fa
:04016c002c0500005e
:020000040000fa
:040170002c0500005a
:020000040000fa
:040174002c05000056
:020000040000fa
:040178002c05000052
:020000040000fa
:04017c002c0500004e
:020000040000fa
:040180002c0500004a
:020000040000fa
:040184002c05000046
:020000040000fa
:040188002c05000042
:020000040000fa
:04018c002c0500003e
:020000040000fa
:040190002c0500003a
:020000040000fa
:040194002c05000036
:020000040000fa
:040198002c05000032
:020000040000fa
:04019c002c0500002e
:020000040000fa
:0401a0002c0500002a
:020000040000fa
:0401a4002c05000026
:020000040000fa
:0401a8002c05000022
:020000040000fa
:0401ac002c0500001e
:020000040000fa
:0401b0002c0500001a
:020000040000fa
:0401b4002c05000016
:020000040000fa
:0401b8002c05000012
:020000040000fa
:0401bc002c0500000e
:020000040000fa
:0401c0002c0500000a
:020000040000fa
:0401c4002c05000006
:020000040000fa
:0401c8002c05000002
:020000040000fa
:0401cc002c050000fe
:020000040000fa
:0401d0002c050000fa
:020000040000fa
:0401d4002c050000f6
:020000040000fa
:0401d8002c050000f2
:020000040000fa
:0401dc002c050000ee
:020000040000fa
:0401e0002c050000ea
:020000040000fa
:0401e4002c050000e6
:020000040000fa
:0401e8002c050000e2
:020000040000fa
:0401ec002c050000de
:020000040000fa
:0401f0002c050000da
:020000040000fa
:0401f4002c050000d6
:020000040000fa
:0401f8002c050000d2
:020000040000fa
:0401fc002c050000ce
:020000040000fa
:040200002c050000c9
:020000040000fa
:040204002c050000c5
:020000040000fa
:040208002c050000c1
:020000040000fa
:04020c002c050000bd
:020000040000fa
:040210002c050000b9
:020000040000fa
:040214002c050000b5
:020000040000fa
:040218002c050000b1
:020000040000fa
:04021c002c050000ad
:020000040000fa
:040220002c050000a9
:020000040000fa
:040224002c050000a5
:020000040000fa
:040228002c050000a1
:020000040000fa
:04022c002c0500009d
:020000040000fa
:040230002c05000099
:020000040000fa
:040234002c05000095
:020000040000fa
:040238002c05000091
:020000040000fa
:04023c002c0500008d
:020000040000fa
:040240002c05000089
:020000040000fa
:040244002c05000085
:020000040000fa
:040248002c05000081
:020000040000fa
:04024c002c0500007d
:020000040000fa
:040250002c05000079
:020000040000fa
:040254002c05000075
:020000040000fa
:040258002c05000071
:020000040000fa
:04025c002c0500006d
:020000040000fa
:040260002c05000069
:020000040000fa
:040264002c05000065
:020000040000fa
:040268002c05000061
:020000040000fa
:04026c002c0500005d
:020000040000fa
:040270002c05000059
:020000040000fa
:040274002c05000055
:020000040000fa
:040278002c05000051
:020000040000fa
:04027c002c0500004d
:020000040000fa
:040280002c05000049
:020000040000fa
:040284002c05000045
:020000040000fa
:040288002c05000041
:020000040000fa
:04028c002c0500003d
:020000040000fa
:040290002c05000039
:020000040000fa
:040294002c05000035
:020000040000fa
:040298002c05000031
:020000040000fa
:04029c002c0500002d
:020000040000fa
:0402a0002c05000029
:020000040000fa
:0402a4002c05000025
:020000040000fa
:0402a8002c05000021
:020000040000fa
:0402ac002c0500001d
:020000040000fa
:0402b0002c05000019
:020000040000fa
:0402b4002c05000015
:020000040000fa
:0402b8002c05000011
:020000040000fa
:0402bc002c0500000d
:020000040000fa
:0402c0002c05000009
:020000040000fa
:0402c4002c05000005
:020000040000fa
:0402c8002c05000001
:020000040000fa
:0402cc002c050000fd
:020000040000fa
:0402d0002c050000f9
:020000040000fa
:0402d4002c050000f5
:020000040000fa
:0402d8002c050000f1
:020000040000fa
:0402dc002c050000ed
:020000040000fa
:0402e0002c050000e9
:020000040000fa
:0402e4002c050000e5
:020000040000fa
:0402e8002c050000e1
:020000040000fa
:0402ec002c050000dd
:020000040000fa
:0402f0002c050000d9
:020000040000fa
:0402f4002c050000d5
:020000040000fa
:0402f8002c050000d1
:020000040000fa
:0402fc002c050000cd
:020000040000fa
:040300002c050000c8
:020000040000fa
:040304002c050000c4
:020000040000fa
:040308002c050000c0
:020000040000fa
:04030c002c050000bc
:020000040000fa
:040310002c050000b8
:020000040000fa
:100400000f4223000eff24000e01880000000000b0
:10041000000020000000e000020032000001200087
:1004200020028800140007008d0107000000e00092
:1004300003003a0060f628000100200002003700a7
:100440000000200001002000810f70000100320038
:100450000f000700000020000000e0000200320052
:100460000000020000000000c69102000000000031
:100470000040da000000fe00a0ca24000000e000f6
:1004800002003200002020009001880000000600d9
:10049000a1028800800478000000eb001f003700f4
:1004a000e284440054a0b4009905ba00e2844400f8
:1004b00054a0b4009906ba00e284440054a0b400e9
:1004c0000006eb00476fde00fd07b200ae018800ba
:1004d000636ce10003003a000ad801000000eb0061
:1004e0000e003700606ce10008003a00004deb00a0
:1004f0000a05e800020039003420ec000af0a000f0
:100500008b05e900f9ff3e00040037006168e10057
:10051000010032000086eb000b00070019c7ba008b
:100520000e04e0001905ba0003003a000a00e000da
:10053000dbff3a0000000600fe07b200ae028800b2
:100540008a047800f5ff37000cd0a300e20f4d00bd
:100550001c003b0089027800354dba000a05e8000e
:10056000020039003420ec000af0a0008b05e900fd
:100570000f003200254dba000a05e80002003900dc
:100580003420ec000af0a0008b05e90008003200de
:100590000c00e0000600320015cdba000a05e800a4
:1005a000020039003420ec000af0a0008b05e900bd
:1005b0008984e80054a0b4000b00e000e2ff3a0098
:1005c000000006009902ba00055d78008b05e9007d
:1005d000f7ff3200c82ade00055d78008b05e900d0
:1005e000f3ff32000c00e000f1ff320019ddba0029
:1005f000eeff3700648704000000000078870400e5
:10060000000000008c87040000000000a0870400a8
:1006100000000000b2870400000000004e960400b5
:10062000000000005a8e0400000000003600f800b0
:10063000809fbe00829fbe00849fbe00869fbe003a
:100640000000fa00c028a9000000eb00e449070000
:100650000080fa004f03be004f02be004f01be00f3
:100660004f00be003600f900004006003600f800da
:10067000809fbe00829fbe00849fbe00869fbe00fa
:100680000000fa00db490700c048a9001000200064
:10069000d34907000080fa004f03be004f02be009e
:1006a0004f01be004f00be003600f90000400600ba
:1006b0003600f800809fbe00829fbe00849fbe006f
:1006c000869fbe000000fa00c068a900200020003c
:1006d000c34907000080fa004f03be004f02be006e
:1006e0004f01be004f00be003600f900004006007a
:1006f0003600f800809fbe00829fbe00849fbe002f
:10070000869fbe000000fa00c088a90030002000cb
:10071000b34907000080fa004f03be004f02be003d
:100720004f01be004f00be003600f9000040060039
:100730003600f800809fbe00829fbe00849fbe00ee
:10074000869fbe000000fa00c0a8a900400020005b
:10075000a34907000080fa004f03be004f02be000d
:100760004f01be004f00be003600f90000400600f9
:100770003600f800809fbe00829fbe00849fbe00ae
:10078000869fbe000000fa00c608a9007000200085
:10079000934907000080fa004f03be004f02be00dd
:1007a0004f01be004f00be003600f90000400600b9
:1007b0003600f800809fbe00829fbe00849fbe006e
:1007c000869fbe000000fa00214680000010200035
:1007d000008060000000e00003003200c508a900ae
:1007e000c00020007e49070021468000000028004c
:1007f000008060000000e00003003200c5e8a900ae
:100800008000200076490700214680000002200079
:10081000008060000000e00003003200c4a8a900ce
:10082000900020006e4907002046800070006000a4
:100830000000e00003003200c488a900a0002000ee
:1008400067490700ffff37003600f800809fbe00b1
:10085000829fbe00849fbe00869fbe000000fa00fb
:100860006b4807000088a9000080fa004f03be0013
:100870004f02be004f01be004f00be003600f9001f
:10088000004006003600f800809fbe00829fbe0038
:10089000849fbe00869fbe000000fa006c480700df
:1008a0000308a9000080fa004f03be004f02be00fb
:1008b0004f01be004f00be003600f90000400600a8
:1008c0003600f800809fbe00829fbe00849fbe005d
:1008d000869fbe000000fa00512080000002200028
:1008e000008060000000e0001f0032005120800006
:1008f00000002200008060000000e00005003200df
:10090000708280000000e0000200320070828000ef
:1009100000000100512080000000210000806000e4
:100920000000e00005003200808280000000e0004e
:10093000020032008082800000000100512080000f
:1009400000802000008060000000e0000500320010
:10095000908280000000e00002003200908280005f
:10096000000001000aa4a90050208000620060007d
:100970000000e00006003200b08280000000e000cd
:1009800002003200b0828000000001000a24a900a9
:100990005120800000042000008060000000e00082
:1009a00006003200a08280000000e0000200320059
:1009b000a0828000000001000ac4a9000468a90008
:1009c0000080fa004f03be004f02be004f01be0080
:1009d0004f00be003600f900004006000000fa009b
:1009e0000448a9000080fa00004006003600f80024
:1009f000809fbe00829fbe00849fbe00869fbe0077
:100a00000000fa00508380000000e0000200320085
:100a10005083800000000100b01f230010407800c8
:100a20008040e800b01f230001487800a01f230089
:100a300011c0b300014878000068a9000080fa00e6
:100a40004f03be004f02be004f01be004f00be006c
:100a50003600f900004006000040da000000fe0009
:100a60000000050014002000c0033700f4ff2f0031
:100a7000be0337000001be003f0007000470a7005e
:100a800003f0a1006509b100160032000d00350029
:100a90006828e10006003500f0ff2f00f1ff270075
:100aa0000300e00013003b000100280000000500e7
:100ab00000004000818048008502e900fcff3a0008
:100ac00008003700f88f420002003c008000eb0075
:100ad000000005008100d1000080d3008502e800fd
:100ae000fcff3a000300e00002003b006000100041
:100af000e0801800000006000001be001e00070094
:100b00000470a70003f0a10003f8a30013003a004b
:100b10006509b10010003200090035006928e100c4
:100b20000200350001002800000005000000400020
:100b3000818048008502e900fcff3a0000000600c1
:100b4000f88f4200050035008100d1000080d300fd
:100b50008502e800fcff3a00000006008000eb0080
:100b6000000005004f89de00820178009a033700fb
:100b70006011b800a8033700c70ade00f107b20011
:100b8000f50fb20008003200e1cf4200020032004f
:100b90000170a00024000500810f700001003200e8
:100ba0000408050044000500810f700002003a00af
:100bb000140005008502e9000000400081c04800e3
:100bc000fcff3b000170a000240005006022b8007b
:100bd000060220000000d0008180d2000482d200f2
:100be0008582d2000000a0000202520083825a00d7
:100bf000030031000202420083824a000000a1008b
:100c00000603e900f3ff3a0000000600efff0700cb
:100c10000400be000000060007f8270007836100fb
:100c20000638e10004003a00f707200087836100de
:100c30008703710001003a0003f0a200889fbe0004
:100c40008a9fbe008c9fbe00470ade000480a10080
:100c5000c71ade000580a100070028000785600094
:100c600087856100f70f20000720e1009e00320019
:100c70000728e1009c003200010678000400e00033
:100c8000b4003200f7072000878060000170a000e8
:100c90000500e000c0003200f707200087816100f6
:100ca0000370a000050652000f003a000b50e1004f
:100cb0000b0032000308e10002003a000200e100ec
:100cc0007e0032000204500083845800040031008a
:100cd0000001fd008101fd008402fd008a05fd0088
:100ce0006044b800210037000520e10005003d0008
:100cf0000001fd008101fd008402fd008a05fd0068
:100d0000050652007a60e100050035000170a1007f
:100d10004722dd00848070008a8070006300370005
:100d20006044b800ef02660007ff2f000706660068
:100d30000500e00006003400f08312008714dd0097
:100d40000511de00071bdd00060171008519de00bc
:100d50007060e10005003500090478008204780025
:100d6000030178008001eb00700656000b50e10093
:100d700003003a000200400083804800040037006e
:100d800060041400e0841c000200580083805800b6
:100d90000188a300060032008100d1000080d3004a
:100da0008984d3000884d3000402e80027003700b8
:100db0000178a30025003a000100e00003003200a2
:100dc0008186cf00698656000a0037008c0020001b
:100dd0000000e00004003a00090078008804780070
:100de0000004eb00700252008086cf000d06460022
:100df0000c06e9007060e100060035008000780014
:100e000009007800880478000004eb0070065600a2
:100e1000700252000c00e0000c0034008c08dd0071
:100e2000f00316000703de00868070000c00dd0072
:100e3000074bde00060070008c4cdd000743de002f
:100e4000868474000c44dd000c0252006120e10035
:100e500020003500610160000700280087816400e0
:100e6000f7ff270087836400070374000300e00096
:100e70000600320082037300040032000000e80024
:100e8000e08048000188a3000e003a00f70f200020
:100e90000720e1004a003d000170a1004722dd006b
:100ea000810072008a8070000000be004f06be0004
:100eb0004f05be004f04be00000006006000b800f1
:100ec000faff37008100d1000080d3000402e8005f
:100ed000eeff37000401780089017400a1010700ca
:100ee0008a807000f1ff3700f701070007027800e1
:100ef0000001fd008101fd00f30107008702780079
:100f0000850372000778a300040032000001fd0091
:100f10008101fd0006020700e4ff3700850362003f
:100f20000768a300080032000b50e1000300320004
:100f3000f0ff2f00f1ff2700dcff37000001fd006c
:100f40008101fd00d9ff37000468a300d7ff3200fc
:100f5000faff3700f8ff2700888360000b003a0093
:100f60000000e00009003a008303640082837300fc
:100f7000020032000200be00ccff37000b50e1003f
:100f8000ceff3a000200be00c8ff37001400200068
:100f9000810064003eff3700f8ff2700888361006e
:100fa00004003a000200e00002003a008c007800e1
:100fb000beff3700150020008301640039ff3700b1
:100fc00001f827000000200081007500b7ff3700fe
:100fd000889fbe008a9fbe008c9fbe001b00200021
:100fe0000202be00058668000600280006066600ac
:100ff0004709de00f20fb200820032000243e8002f
:1010000080003200c729de00f30fb2007d003200fd
:101010000343e8007b003200f107b2000170a0003a
:10102000f507b2000570a000c708dd004903de0027
:10103000868070004700dd00c72add004923de00fe
:10104000868272004722dd00030551000403500030
:101050008583580003003100000040008180480073
:101060000a05e9008c1f78008a9fbe00040050002a
:10107000858058000402420085824a00000040003a
:10108000818048000005eb000004be006033b8001a
:101090000406be000d48e1005600310011000900b1
:1010a0004dccd8000c01b8000d02b800848141007d
:1010b00060824a008283530003045c0084845c00e5
:1010c00060055d000a00e00025003a008005780018
:1010d0000d40e100490031008800780007007800e9
:1010e000110009004d88d8000c01b8000d02b800ad
:1010f0008481410060824a006003110083835b00a9
:1011000004045c00e0845c000900e00021003a0077
:101110004f01be000300e0002b003200e30160003d
:10112000070673008c8171000100320064007000ba
:101130004200de004e5edd000c007000c258de0092
:1011400001e0a00083010700cf01780081807100d9
:101150004f06be004f05be004f04be000000060053
:101160008c8343000d044c00e0844c0060054d006e
:101170000000e9000a00e000d4ff32008c83430045
:101180000d044c00e0844c0060054d000000e900b7
:10119000ceff37000c0343008d834b0060044c00ee
:1011a000e0844c000000e9000900e000d8ff3200b4
:1011b0000c0343008d834b0060044c00e0844c0022
:1011c0000000e900d2ff37004200de004e5edd0085
:1011d0000c007000c258de0001e0a000cf017800d2
:1011e0000300e000daff320060001000e080180029
:1011f000d7ff3700f0ff2f00aaff3700f0ff2f00c6
:10120000b9ff37000404be002f01070087067800ed
:101210000004fd008104fd002b0107000783660028
:101220000678a300030032000960a7000800be0092
:101230002c0037000d78a300020032000800be0029
:10124000280037000778a30026003a0001f0a1002b
:1012500009f0a1000668a30003003200f1ff270097
:10126000f0ff2f00baff37000d68a3000300320023
:101270000800be008c807000b5ff37000768a3002f
:1012800007003a000648a30003003200f1ff2700e0
:10129000f0ff2f00aeff37000d48a300030032001f
:1012a0006000b8008c807000a9ff37000748a300d9
:1012b0000400320001f82700000020008c8070003c
:1012c000a3ff3700760107000004fd008104fd0044
:1012d00002057800720107000802be008a0178004a
:1012e00059ff37000160a0001202200072838800bd
:1012f00097ff37000100e000120032000500e00017
:1013000010003200889fbe008a9fbe008c9fbe00e6
:101310000006eb0001f8a30003003200600010009b
:10132000e08018000cf0a00005f8a30003003200d4
:1013300060021200e0821a000cf0a2008005eb00af
:1013400041ff37006000b800020005000383680019
:101350000700280007036300470ade000480a1009d
:10136000c71ade000580a100f70f20000720e1006a
:10137000420032000728e10040003200889fbe0092
:101380008a9fbe008c1f7800f107b200f307b200fd
:101390000400e000640032000170a0000500e000dd
:1013a000680032000370a00085054200eb07b10021
:1013b0000204b8000302b8008484440060854a0037
:1013c000020ab800848444000a854a00030ab8006f
:1013d00004054500040033000804d0008984d200cd
:1013e0000a85d2008b05e9006158e1003d00350017
:1013f00002102000090161000308200089816100ba
:10140000f70720008783640008867300c84cde005d
:10141000c853dd00878474004855de000300e000f7
:101420000600320082037600040032008904e800de
:1014300060054d000a88a3000c003a00f70f200059
:101440000758e10044003d000a70a100c75ddd00bf
:101450000a8575008a007300090078004f0678003d
:101460004f05be004f04be00000006000a05d10073
:101470008984d3008b05e800f0ff3700881f7800cf
:101480000604780090000700070278000001fd00c4
:101490008101fd008c00070087027800850372003f
:1014a0000778a300050032000001fd008101fd0066
:1014b0009f0007004f0478000000060085037200bb
:1014c0000748a30003003200f0ff2f00f1ff2700c0
:1014d000f8ff37000000200001f827008880700026
:1014e000f4ff3700880178004848dd0080817100f2
:1014f0004848de00c850dd0001007000c850de0022
:10150000060478000b017800160007008880700040
:10151000d2ff37000500e000050032001700200070
:101520003a0007009dff370081037000f9ff3a0081
:10153000860078004f0678004f05be004f04be00bd
:101540000000050083037100f9ff3200270020002e
:101550002e00070094ff370001f8270086807000f6
:10156000f4ff37000100e0002600320061011100a5
:101570007810e10023003c006022b8007010e10008
:101580000400350080027800010078008000eb0044
:10159000700151000200e0000900340070031100e6
:1015a000062add00822ade008603dd0087827200c3
:1015b0000200de00860bdd00070070008208de00fe
:1015c00084817100f4ff270004826200848171002d
:1015d00004002800848262006102600005f0a60019
:1015e0000000060004827100070032000000e800dd
:1015f000e0804800000006000002be006000b80065
:10160000efff37006000b80000000600889fbe00b2
:101610000004eb006138e10016003a000100e00030
:1016200008003a00c800de004800dd008800200005
:101630000100e00003003a00c800de004800dd00c1
:10164000680444008184cf00e9845400060034001b
:101650008908dd00f08314008703de0087807000b6
:101660000900dd0009044400610214004f04be00bb
:10167000000006000300e00008003a00c811de0088
:101680004811dd00880020000300e00003003a005c
:10169000c811de004811dd00680444008384cf00d7
:1016a000e9845400060034008919dd00f083140039
:1016b0008713de00878171000911dd0009044400f1
:1016c000e1021400e9ff37002700200001f0a70025
:1016d00017002000470bde00f60fb20004003200b6
:1016e0000643e8000a0032004702b300000006008b
:1016f00001037800f607b2000603700002003a000a
:101700000703b300000006008702b30000000600d4
:1017100001037800f607b2000603700002003200f1
:101720000770a000000006000760a000000006008f
:101730000478a300040032000578a30003003200ff
:101740000168a30001003a000200be000160a00091
:101750000000060081017000270032008002eb00cb
:1017600001f8a3000300320060001000e0801800c0
:1017700015002000f407200002024200200034007f
:10178000f7032000870360000604200000036300c5
:1017900002082000000161004700de00c909dd00e9
:1017a00000807100c708de000600e000080032007b
:1017b00087037100060032001000b0000180b00005
:1017c0000188a30002003200c108de000402e80024
:1017d000f107b200f30f20000320e10003003d00f9
:1017e0004722dd00810072002900370001f8270040
:1017f0000000eb00260037006000b8000000060083
:10180000680212007f20e100020034006000b8008e
:101810001f0037006011b8007020e100040035009f
:1018200080017800010078008000eb007002520017
:101830000400e00009003400f00312000719dd0085
:101840008419de000703dd00868171000400de00dc
:10185000070bdd00060070008408de00f7ff27009c
:10186000838363008703710006002800030363007d
:10187000070032000700e00003003a006101600049
:1018800002817300020032001000b0000180b0003d
:101890000500a6000000060001f0a0000000060000
:1018a0004f0ade004709de00f107b200f20fb20076
:1018b0000b003200f207b1000170a000c708dd0084
:1018c000c901de00838070004700dd000400a6002f
:1018d0000000060060001000e08018000000060014
:1018e000810f700001003a00000006008182cf00e5
:1018f0000500e00010003e008082cf00ee82420032
:101900007028e1000400390007003e0080007800e4
:101910000000eb000e003700708312008600de002e
:101920000500dd000a003700708352008600dd00ec
:101930000000eb0006003700e28252008508dd005f
:10194000708312000603de00868070000500dd0053
:101950007507b0000501ea000400a60000000600bb
:1019600060001000e080180000000600889fbe00a4
:101970008a9fbe00841f78007c0007004f0078001b
:1019800011003300f0ff2f00838f6c0006003b0036
:10199000040565000a00a7000800370009f0a6004a
:1019a0001000200008003700820f5400838f5c0075
:1019b000030039001000200001003e00000020005c
:1019c00009f0a7000000ea004f05be004f04be006a
:1019d0000000e00000000600881f78000304780083
:1019e0000300e00007003d0060001000e0801800e8
:1019f00060011900e081190002003b0001f02d0098
:101a0000030037000400070008f0a70001f0a00061
:101a10004f04780000000600889fbe008a9fbe0029
:101a200000827000040271000482710026003200fe
:101a30000004be000200be006011b8006b09200067
:101a4000950220000182cf000a0039000541b10053
:101a50000082cf00070039000541b1000982cf00a4
:101a6000040039000541b1000882cf0001003900af
:101a70000541b10005425200120032000a003b004d
:101a800082817100610164008100d1000080d30077
:101a90008984d3000884d3008b05e8000442e80061
:101aa000f7ff3a00070037000804440089844c001f
:101ab00000004800818048008b05e9000442e900ed
:101ac000f9ff3a00030007004f05be004f04be00b7
:101ad0000000060081002000618055000b003d00e1
:101ae0000b00200061fe2f000100e1001d0034000a
:101af00082817100610164008904d1000884d300ef
:101b00000000e800faff3a00710020006100640064
:101b1000030070000200600009003200610444000c
:101b2000e0844c000988a500050032008b05e80020
:101b30006808e10002003a008904d1000884d3005b
:101b4000f20f20000258e10005003d00c75ddd00f6
:101b5000f907b200898075000800780000000600cf
:101b60000bf827008b007800000005000004be0081
:101b700001fc07000003be000405be000200be0019
:101b8000fdfb0700844f7500000006000400fa000a
:101b9000889fbe008a9fbe000004be004709de0089
:101ba00003002000f20fb200f207b100f60f51005f
:101bb00030003c000200e0001c003500faff2f005e
:101bc000fb0720000201e900030033008b85d100f0
:101bd0000a85d300fbff37008b8164000a01600097
:101be000e00f5100e08f5900220032000200200077
:101bf00003b8270011fc0700a0bf9f00b1bf9f00e2
:101c0000e00f5400e08f5c0002003d000a04440035
:101c10008b844c000a85ea008b85ea008b80640087
:101c20000a0064000004be0011003700020020001a
:101c300003b8270001fc0700a0bf9f00b1bf9f00b1
:101c4000e00f5400e08f5c00020035006044b800f3
:101c5000070037000800440089804c00e00f500066
:101c6000e08f5800020032000800200009f82b0025
:101c70000800be004f05be004f04be000080fa0001
:101c8000000006000400fa00889fbe008a9fbe0084
:101c90008c9fbe000004be004708de00f00fb200bb
:101ca00051092000810f500041003c000806be0091
:101cb000e00f5400e08f5c0003003d000805be000b
:101cc0000bf0a200010037000805be00d10720007c
:101cd000810f50000a003c000200200003b02400e5
:101ce0000a00be00d5fb070080bf9f0091bf9f0088
:101cf0006011b8000800be0094fd07002b003700fb
:101d00000200200003b024000a00be00cbfb070045
:101d10000200200003b02400bffb07000a01be0040
:101d2000bdfb07000004be000200200003f02300fa
:101d30004efb07000000e000070034000a01be006f
:101d40000800be00bdfb07000200200003f82300ce
:101d5000b1fb07000f0037000200200003f02b004a
:101d60000800be003ffb07000000e00006003c004a
:101d70000a01be000800be00b0fb07000200200000
:101d800003f82300020037000a01be000800be006d
:101d9000aafb0700e00f5600e08f5e0003003d0045
:101da0000004be0009f0a200010037000004be00dc
:101db0000800be004f06be004f05be004f04be0027
:081dc0000080fa00000006009b
:020000040000fa
:101dc800ffff0000d21f000080ec00008912000015
:101dd8002440000036360000367f00007f360000c1
:101de800ffff00003c3c00003c00000018ff000022
:101df800fe3c00001f1f0000834600008df000001d
:101e0800c1830000006100002244000086670000d2
:101e180037110000224c0000703c00007e6000007a
:101e2800603000007bdf0000ceff00007fc90000ab
:101e38002437000066cc0000cccc000066310000de
:101e4800ce6600003333000033660000c818000077
:101e580018ff0000ff3c00003c6600001818000056
:101e680018ff0000ff18000018180000186b000089
:101e780048ff0000ffc00000f00200000c1800003e
:101e880060c30000060c000030610000830c0000f5
:101e98001820000000380000fbbe00003c7800005d
:101ea800f1e30000c7dd0000f1c0000038f30000d6
:101eb80060c10000830600000c180000fdf8000057
:101ec8003cfe0000c7030000030600000c180000d9
:101ed80070e30000ffff00007cfe00000303000029
:101ee800031e00001e07000003030000fe7c000024
:101ef8001c380000b1640000d9bf0000ff3e00009c
:101f08007c7e00003f1800000fc70000f31c000093
:101f180006030000c3ff00009f8000000f3f000081
:101f28003060000060dc0000fee30000c3630000d6
:101f38007e3c0000ffff0000c3030000060600000f
:101f4800060c00000c0c000018380000fb1e0000f6
:101f58003c6f00009f630000c78f0000f1c00000c5
:101f68003c7e0000e6c30000c3e700007f3b0000a2
:101f7800060e0000fcf00000f00f00006c000000ee
:101f88001ad2000000010000838700000e0f000035
:101f980080e000001c030000ffff0000c0000000fc
:101fa8000fff0000fcc00000780f000001e00000f7
:101fb800f9e30000c18000007cfe0000c7030000b8
:101fc8000e1c00000000000000300000301e000061
:101fd8001f1c0000dc6c0000767b00006db6000062
:101fe800db6f0000f3fc000006330000f878000007
:101ff8003c070000c038000005810000b036000032
:102008000fe10000fc710000df7f0000ef8000009e
:10201800ff3f0000e6190000867f00001fe6000071
:102028001d83000060ff0000fff000001fbf0000dc
:10203800d8f800003c0600000301000080610000a1
:10204800bfc70000c0fe00003fe600001983000083
:1020580060d80000360d000083610000bfef00006b
:10206800e0ff0000ffd800006db70000c3e10000ea
:10207800b0c3000061ff0000ffe00000ffff0000a8
:10208800d86d0000b7c30000e1b00000c0600000d8
:102098007c3e0000001f00009fe600001b060000b9
:1020a800c03000000c7f00001fe100009fe300002b
:1020b800f0f70000fbd80000cc66000033f9000000
:1020c800fcc60000637b0000fde00000fff3000099
:1020d8000c300000c30c000033ff0000c01f0000dc
:1020e800c7f00000300c000003000000cc330000f3
:1020f8000cc700003f870000c0f70000bde60000e5
:1021080061b00000781f000006e10000986300003d
:102118003cff00003cfc00007e0c000006030000b1
:1021280001800000c663000031ff0000ffe00000ee
:10213800e0fe00003dc700003de70000bcd70000fe
:102148009bb3000076600000de3f0000c7800000ff
:10215800e1fe00003de300003c660000ccdd00002d
:1021680099b300001e630000de3b0000c3000000be
:102178001f070000f1c70000707c00000780000006
:10218800f01f000007710000c7f000007c0000008d
:10219800fe7f0000986c0000361b0000f9f8000074
:1021a800c06000007c3e0000001f000007f1000036
:1021b800c77000007c07000080f000001f070000c7
:1021c80071c70000f07c00000c330000fe7f0000a7
:1021d80080fc00007f180000cc66000073f100004e
:1021e800f0cc0000637d0000fe6000003fbf0000ef
:1021f800f07800000f030000f83f000083c30000e0
:10220800ffbf000080ff0000fff600007b3d0000dc
:1022180098c0000060300000183f00001f800000d8
:10222800f1fe00003d830000306600000cc1000094
:102238009833000006600000c7f000007c00000032
:10224800fbff00007dc3000018c300001836000023
:1022580006c00000500e000001c000001000000081
:10226800fbfe0000f60d0000936e0000dbb70000d7
:10227800adee00007b8e0000e3180000f3fc0000c8
:10228800f7380000fc1e000003010000e0cc00004d
:1022980073bc0000ff3c0000f3fc0000f7380000ae
:1022a800cc1e000007800000c03000000c0f0000aa
:1022b800c3f00000fefe0000c6cc000018180000a5
:1022c80030630000c3ff0000ffff0000cccc00001b
:1022d800cccc0000ccff0000010300000606000083
:1022e8000c0c00001818000030300000606000007e
:1022f800c0800000ff330000333300003333000098
:10230800ff10000071e300006c70000040ff000047
:10231800fffc0000888000007e3f00008fcf000097
:10232800ee3600001bfe0000ffe00000380600004b
:1023380001bc00007f9c0000760d00008371000046
:10234800ffee0000f03f0000bff80000783c0000fe
:1023580007050000fe7e000003800000e018000072
:10236800f67f0000b8ec00001b060000e39f0000a9
:10237800f3fc00003e3f0000b0ff0000fffe00003d
:1023880001fe00007e1f00003f3000007e7e00003e
:102398003030000030300000fefe00003fbf00007b
:1023a800f9d800006c37000039fc00007603000003
:1023b800018f0000c7c00000e0700000180d000089
:1023c800c7f30000998c0000c66300007bfd000085
:1023d800e0180000180000007878000018180000c5
:1023e80018180000ffff0000186000003ffc000004
:1023f80030c300000c300000c30f0000ff80000055
:10240800e0700000180d0000e6f30000e1e00000b5
:10241800f86e000073f90000e078000078180000fa
:10242800181800001818000018180000ffff000016
:10243800fd9f0000f99b0000336600006ccd000092
:10244800bdff0000bfee00007f980000cc660000d2
:10245800331b0000dfef00003e3f0000b8f800002b
:102468003c1f00001dfc00007cef00001ff900006d
:10247800c3b0000036060000e1df0000f37800007a
:10248800600c000003e000007c0000001eef00006c
:10249800ff870000606c00000dc300009ff0000083
:1024a800f6000000c01800000f810000f07700005f
:1024b800bfcf00000603000001830000f9fc000004
:1024c8003fff0000c3fc00003fc30000fffc00000a
:1024d8006060000060fe0000fe60000060600000b8
:1024e800617f00003ee7000073980000cc660000a2
:1024f80033190000fe7f0000fbff00007cc60000cf
:1025080018c10000b03600000380000070f1000020
:10251800fe3d0000bb37000063f80000770e0000a6
:10252800e18c0000f7fb0000cd83000083c30000ae
:10253800bbdf0000eff30000fcf6000018cc000041
:102548003307000081e00000300c0000060f000097
:10255800c3f00000ffff000030c300000c7f000044
:10256800ff37000066660000cc6600006673000056
:10257800ffff0000fff00000ce6600006633000099
:1025880066660000ec7000007cf30000c0c000002c
:1025980000000000000000000b0000000100000027
:1025a80000000000030b00000b040000f600000010
:1025b80005000000070500000b020000f6000000ff
:1025c8000a000000080c00000b010000f6000000e3
:1025d80016000000070e00000b020000f5000000c6
:1025e80023000000070b00000b020000f6000000ab
:1025f8002d000000080a00000b010000f700000091
:1026080037000000030500000b040000f60000007e
:1026180039000000040e00000b050000f600000061
:1026280040000000040e00000b020000f60000004d
:1026380047000000080700000b020000f600000039
:102648004e000000080900000b020000f80000001e
:1026580057000000030500000b030000ff00000006
:1026680059000000090200000b010000fb000000f7
:102678005c000000020200000b040000ff000000e4
:102688005d000000070f00000b020000f4000000ce
:102698006b000000070c00000b020000f5000000b2
:1026a80076000000070b00000b020000f600000097
:1026b80080000000080c00000b010000f50000007d
:1026c8008c000000080c00000b020000f500000060
:1026d80098000000070a00000b020000f700000045
:1026e800a1000000090b00000b010000f60000002b
:1026f800ae000000080c00000b020000f50000000e
:10270800ba000000080b00000b010000f6000000f2
:10271800c5000000070c00000b020000f5000000d7
:10272800d0000000080c00000b020000f5000000bb
:10273800dc000000020800000b040000f9000000a3
:10274800de000000030b00000b030000f90000008e
:10275800e3000000090800000b010000f800000079
:10276800ec000000090600000b010000f900000061
:10277800f3000000090800000b010000f800000049
:10278800fc000000080b00000b020000f60000002f
:1027980007010000090f00000b010000f500000010
:1027a800180100000b0b00000b000000f6000000f1
:1027b800280100000a0b00000b010000f6000000d1
:1027c80036010000090b00000b010000f6000000b4
:1027d800430100000a0b00000b000000f600000097
:1027e80051010000090b00000b010000f600000079
:1027f8005e010000090b00000b010000f60000005c
:102808006b0100000a0b00000b010000f60000003d
:1028180079010000090b00000b010000f600000020
:1028280086010000060b00000b030000f600000004
:102838008f0100000a0b00000b010000f6000000e9
:102848009d0100000a0b00000b010000f6000000cb
:10285800ab010000090b00000b010000f6000000ae
:10286800b80100000b0b00000b000000f600000090
:10287800c80100000b0b00000b000000f600000070
:10288800d80100000b0b00000b000000f600000050
:10289800e8010000090b00000b010000f600000031
:1028a800f50100000b0e00000b000000f600000010
:1028b80009020000090b00000b010000f6000000ef
:1028c80016020000090b00000b010000f6000000d2
:1028d80023020000090b00000b010000f6000000b5
:1028e800300200000b0b00000b000000f600000097
:1028f800400200000b0b00000b000000f600000077
:10290800500200000a0b00000b000000f600000057
:102918005e0200000a0b00000b000000f600000039
:102928006c0200000a0b00000b000000f60000001b
:102938007a020000080b00000b020000f6000000fd
:1029480085020000040e00000b050000f6000000e0
:102958008c020000070f00000b020000f4000000ca
:102968009a020000040e00000b020000f6000000ae
:10297800a1020000070600000b020000f50000009d
:10298800a70200000b0200000b000000030000007b
:10299800aa020000030300000b030000f50000007a
:1029a800ac020000090800000b010000f90000005b
:1029b800b50200000a0b00000b000000f600000042
:1029c800c3020000090800000b010000f900000024
:1029d800cc0200000a0b00000b010000f60000000a
:1029e800da020000090800000b010000f9000000ed
:1029f800e3020000080b00000b020000f6000000d4
:102a0800ee020000090c00000b010000f9000000b4
:102a1800fc020000090b00000b010000f60000009a
:102a280009030000080b00000b020000f60000007c
:102a380014030000060f00000b020000f60000005f
:102a480020030000090b00000b010000f600000045
:102a58002d030000080b00000b020000f600000028
:102a6800380300000b0800000b000000f90000000c
:102a780043030000090800000b010000f9000000f2
:102a88004c030000090800000b010000f9000000d9
:102a9800550300000b0c00000b000000f9000000bb
:102aa800660300000b0c00000b000000f90000009a
:102ab80077030000090800000b010000f90000007e
:102ac80080030000080800000b020000f900000065
:102ad80088030000080b00000b010000f60000004e
:102ae80093030000090800000b010000f900000032
:102af8009c0300000b0800000b000000f900000018
:102b0800a70300000b0800000b000000f9000000fc
:102b1800b2030000090800000b010000f9000000e2
:102b2800bb0300000a0c00000b000000f9000000c5
:102b3800ca030000070800000b020000f9000000ab
:102b4800d1030000040e00000b030000f600000093
:102b5800d8030000020e00000b050000f60000007c
:102b6800dc030000040e00000b040000f600000067
:102b7800e3030000090400000b010000fa00000054
:102b8800e48e0000cc920000200000007e000000cf
:102b980012000000e8b4000057d50000f50000005e
:102ba8004e3e000080a500004a4a00005a5000002e
:102bb800c06a00004095000080aa0000805d000007
:102bc80000600000e08000002548000056d40000a6
:102bd80075400000c54e0000c51c0000979200001b
:102be800f31c000053540000e54800005554000051
:102bf80055940000a046000064e30000809800009f
:102c0800c504000056c6000057da0000d75c000073
:102c180072460000d6dc0000f3ce0000f348000046
:102c280072d40000b7da0000f8240000d4bb00001a
:102c38005a9200004e8e0000eb580000809d000064
:102c4800b990000056d40000d748000056d40000c0
:102c580040d700005a7100001ce9000024b60000ab
:102c6800d4b60000a48c00006b55000000b500002d
:102c78005ab5000024e500004eea0000c0910000ab
:102c880012d50000c0540000f0900000c7f000000a
:102c9800935e00007180000025de00005e300000b9
:102ca8006e800000779c0000935a0000b845000031
:102cb80060920000eaaa000040d500006ad6000031
:102cc8008055000000d700004075000090e8000023
:102cd80071e00000ba400000b5800000b5000000b7
:102ce8008d540000aa800000ace00000e5700000f0
:102cf8006a260000fcc80000ac5a00000000000072
:102d080000000000020000000100000000000000b8
:102d18000105000002000000fc00000001000000a6
:102d28000302000004000000fc0000000200000094
:102d38000505000006000000fc0000000600000079
:102d48000306000004000000fc0000000900000069
:102d58000305000004000000fc0000000b00000058
:102d68000405000005000000fc0000000e00000043
:102d78000102000002000000fc0000000f0000003b
:102d88000205000003000000fc0000001100000024
:102d98000205000003000000fc0000001300000012
:102da8000303000004000000fd00000015000000ff
:102db8000303000004000000fd00000017000000ed
:102dc80002020000030000000000000018000000dc
:102dd8000301000004000000fe00000019000000cc
:102de8000101000002000000000000001a000000bd
:102df8000305000004000000fc0000001c000000a7
:102e08000305000004000000fc0000001e00000094
:102e18000205000003000000fc0000002000000084
:102e28000305000004000000fc0000002200000070
:102e38000305000004000000fc000000240000005e
:102e48000305000004000000fc000000260000004c
:102e58000305000004000000fc000000280000003a
:102e68000305000004000000fc0000002a00000028
:102e78000305000004000000fc0000002c00000016
:102e88000305000004000000fc0000002e00000004
:102e98000305000004000000fc00000030000000f2
:102ea8000103000002000000fd00000031000000e6
:102eb8000204000003000000fd00000032000000d2
:102ec8000203000003000000fd00000033000000c2
:102ed8000303000004000000fd00000035000000ae
:102ee8000203000003000000fd000000360000009f
:102ef8000305000004000000fc000000380000008a
:102f08000305000004000000fc0000003a00000077
:102f18000305000004000000fc0000003c00000065
:102f28000305000004000000fc0000003e00000053
:102f38000305000004000000fc0000004000000041
:102f48000305000004000000fc000000420000002f
:102f58000305000004000000fc000000440000001d
:102f68000305000004000000fc000000460000000b
:102f78000305000004000000fc00000048000000f9
:102f88000305000004000000fc0000004a000000e7
:102f98000105000002000000fc0000004b000000da
:102fa8000305000004000000fc0000004d000000c4
:102fb8000305000004000000fc0000004f000000b2
:102fc8000305000004000000fc00000051000000a0
:102fd8000505000006000000fc0000005500000088
:102fe8000405000005000000fc0000005800000077
:102ff8000305000004000000fc0000005a00000067
:103008000305000004000000fc0000005c00000054
:103018000306000004000000fc0000005f00000040
:103028000305000004000000fc000000610000002f
:103038000305000004000000fc000000630000001d
:103048000305000004000000fc000000650000000b
:103058000305000004000000fc00000067000000f9
:103068000305000004000000fc00000069000000e7
:103078000505000006000000fc0000006d000000cf
:103088000305000004000000fc0000006f000000c1
:103098000305000004000000fc00000071000000af
:1030a8000305000004000000fc000000730000009d
:1030b8000205000003000000fc000000750000008d
:1030c8000305000004000000fc0000007700000079
:1030d8000205000003000000fc0000007900000069
:1030e8000302000004000000fc0000007a00000059
:1030f8000401000004000000010000007b00000043
:103108000202000003000000fc0000007c00000038
:103118000304000004000000fd0000007e00000021
:103128000305000004000000fc000000800000000f
:103138000303000004000000fe00000082000000fd
:103148000305000004000000fc00000084000000eb
:103158000304000004000000fd00000086000000d9
:103168000205000003000000fc00000088000000c9
:103178000305000004000000fd0000008a000000b4
:103188000305000004000000fc0000008c000000a3
:103198000105000002000000fc0000008d00000096
:1031a8000206000003000000fc0000008f00000081
:1031b8000305000004000000fc000000910000006e
:1031c8000205000003000000fc000000930000005e
:1031d8000503000006000000fe0000009500000046
:1031e8000303000004000000fe0000009700000038
:1031f8000303000004000000fe0000009900000026
:103208000304000004000000fe0000009b00000012
:103218000304000004000000fe0000009d00000000
:103228000203000003000000fe0000009e000000f2
:103238000304000004000000fd000000a0000000de
:103248000205000003000000fc000000a2000000ce
:103258000303000004000000fe000000a4000000ba
:103268000303000004000000fe000000a6000000a8
:103278000503000006000000fe000000a800000092
:103288000303000004000000fe000000aa00000084
:103298000304000004000000fe000000ac00000071
:1032a8000304000004000000fd000000ae00000060
:1032b8000305000004000000fc000000b00000004e
:1032c8000106000002000000fc000000b100000040
:1032d8000305000004000000fc000000b30000002b
:1032e8000402000005000000fd000000ce9500006b
:1032f80082960000200000007e0000000700000009
:10330800c0b40000bf8000006b000000dd8000003a
:10331800598000008064000098f000005d00000003
:10332800c0e00000802a0000005500000094000062
:10333800c9800000ef800000bc8000006b00000026
:103348009f800000e48000007f000000fc800000f7
:10335800a058000064e3000080980000d8d800005e
:10336800805e000080df00008071000080d70000d0
:1033780000fb000080fa000000d7000080be0000bb
:1033880080e0000027000000ba8000009380000061
:10339800fe800000f6800000f7800000fe000000bc
:1033a800f7000000de8000006b000000e90000006c
:1033b800b7800000b5000000bf800000aa800000b0
:1033c800a9000000eb800000ec88000080dc000011
:1033d80054e0000090700000bcf000007cb00000d9
:1033e80068fc0000bcc00000589a000080a40000df
:1033f800dcd40000f0f80000f4e0000060590000a0
:1034080080bc0000a8ec0000f0ac00008090000038
:1034180079800000f0cf0000007800000000000074
:10342800000000000400000001000000000000008f
:103438000102000003010000fe000000010000007e
:103448000302000004000000fe000000020000006b
:103458000303000004000000fe0000000400000058
:103468000303000004000000fe0000000600000046
:103478000303000004000000fe0000000800000034
:103488000303000004000000fe0000000a00000022
:103498000101000003010000fe0000000b00000015
:1034a8000203000003000000fe0000000c00000002
:1034b8000203000004010000fe0000000d000000ef
:1034c8000202000004010000fe0000000e000000df
:1034d8000303000004000000fe00000010000000cc
:1034e80001020000020000000000000011000000be
:1034f8000301000004000000ff00000012000000ab
:10350800010100000200000000000000130000009c
:103518000303000004000000fe0000001500000086
:103528000303000004000000fe0000001700000074
:103538000203000003000000fe0000001800000065
:103548000303000004000000fe0000001a00000051
:103558000303000004000000fe0000001c0000003f
:103568000303000004000000fe0000001e0000002d
:103578000303000004000000fe000000200000001b
:103588000303000004000000fe0000002200000009
:103598000303000004000000fe00000024000000f7
:1035a8000303000004000000fe00000026000000e5
:1035b8000303000004000000fe00000028000000d3
:1035c8000103000003010000fe00000029000000c4
:1035d8000203000003000000ff0000002a000000b2
:1035e8000203000003000000fe0000002b000000a2
:1035f8000303000004000000fe0000002d0000008e
:103608000203000004010000fe0000002e0000007c
:103618000203000004010000fe0000002f0000006b
:103628000303000004000000fe0000003100000059
:103638000303000004000000fe0000003300000047
:103648000303000004000000fe0000003500000035
:103658000303000004000000fe0000003700000023
:103668000303000004000000fe0000003900000011
:103678000303000004000000fe0000003b000000ff
:103688000303000004000000fe0000003d000000ed
:103698000303000004000000fe0000003f000000db
:1036a8000303000004000000fe00000041000000c9
:1036b8000103000003010000fe00000042000000ba
:1036c8000303000004000000fe00000044000000a6
:1036d8000303000004000000fe0000004600000094
:1036e8000303000004000000fe0000004800000082
:1036f8000303000004000000fe0000004a00000070
:103708000303000004000000fe0000004c0000005d
:103718000303000004000000fe0000004e0000004b
:103728000303000004000000fe0000005000000039
:103738000303000004000000fe0000005200000027
:103748000303000004000000fe0000005400000015
:103758000303000004000000fe0000005600000003
:103768000303000004000000fe00000058000000f1
:103778000303000004000000fe0000005a000000df
:103788000303000004000000fe0000005c000000cd
:103798000303000004000000fe0000005e000000bb
:1037a8000303000004000000fe00000060000000a9
:1037b8000303000004000000fe0000006200000097
:1037c8000303000004000000fe0000006400000085
:1037d8000203000003000000fe0000006500000076
:1037e8000303000004000000fe0000006700000062
:1037f8000203000004010000fe0000006800000051
:103808000302000004000000fe0000006900000040
:103818000301000004000000000000006a0000002e
:103828000202000003000000fe0000006b00000020
:103838000202000003000000ff0000006c0000000e
:103848000203000003000000fe0000006d000000fd
:103858000202000003000000ff0000006e000000ec
:103868000203000003000000fe0000006f000000db
:103878000202000003000000ff00000070000000ca
:103888000203000003000000fe00000071000000b9
:103898000203000003000000ff00000072000000a7
:1038a8000203000003000000fe0000007300000097
:1038b8000102000002000000ff0000007400000088
:1038c8000203000003000000ff0000007500000074
:1038d8000303000004000000fe0000007700000061
:1038e8000203000003000000fe0000007800000052
:1038f8000302000004000000ff000000790000003f
:103908000302000004000000ff0000007a0000002d
:103918000202000003000000ff0000007b0000001e
:103928000203000003000000ff0000007c0000000c
:103938000203000003000000ff0000007d000000fb
:103948000202000003000000ff0000007e000000eb
:103958000202000003000000ff0000007f000000da
:103968000303000004000000fe00000081000000c6
:103978000302000004000000ff00000082000000b5
:103988000302000004000000ff00000083000000a4
:103998000302000004000000ff0000008400000093
:1039a8000202000003000000ff0000008500000084
:1039b8000303000004000000ff000000870000006f
:1039c8000202000003000000ff0000008800000061
:1039d8000303000004000000fe0000008a0000004d
:1039e8000104000003010000fe0000008b0000003d
:1039f8000303000004000000fe0000008d0000002a
:103a08000302000004000000fe000000849900008a
:103a1800129a0000200000007e0000000400000050
:103a2800ffea000003de0000f72000001109000093
:103a3800048200004ff9000010890000ff240000f4
:103a4800120900000c800000107c0000d6d2000093
:103a5800d0f00000381e00001793000093d6000035
:103a68007c100000384300003c390000218a000027
:103a78000c50000065390000cb200000b90500009b
:103a8800884c00004464000021c000000e000000c3
:103a9800c80600004032000001a0000007780000be
:103aa80031870000884600008634000030c10000dd
:103ab800c7170000cf000000fe080000888400003f
:103ac80063180000c6100000820800002082000071
:103ad800082100000c63000018c400002222000026
:103ae800006300009adc000072b6000008080000bd
:103af80004020000010f0000f84000002010000040
:103b080008000000d8f00000f0080000842200003f
:103b1800108c000042310000001c000031980000a9
:103b2800d83c00001e0f000007830000c1e0000021
:103b3800d8c4000061c00000138c000063180000a6
:103b4800c63100008c670000803c00004e860000f3
:103b580006060000040c00000810000020410000c8
:103b6800fe3c0000c6060000041c00003e070000e2
:103b78000303000003060000f804000018710000a9
:103b880064c90000a3460000fe1800003060000071
:103b98000f100000203c00000e0700000303000087
:103ba8000302000004f80000071c00003060000059
:103bb80060dc0000e6c30000c3c3000043660000e9
:103bc8003c7f0000820200000204000004040000a0
:103bd8000808000008100000103c00008f1e0000bc
:103be8003e4f000006360000c78f00001b33000060
:103bf800c03c000066c20000c3c30000c3c300008d
:103c0800633f0000060600000c38000060f000006a
:103c18000fd800000003000028010000870e0000f4
:103c28001c0c000003800000700e000000800000e3
:103c3800ff800000000000000ff80000801c00005a
:103c480001c000001c010000c0e00000e0e000002e
:103c5800c0000000791a00001830000060830000de
:103c68000410000020400000030000000f83000043
:103c78008c60000026020000c79c0000c9d8000024
:103c88009d990000d9260000ec60000003040000a4
:103c98000f8000000200000010010000c0160000a4
:103ca8000098000004c0000043030000f820000052
:103cb80061030000181d0000e1f00000ff8600000d
:103cc8001cc10000983300000c7e00000c3100007d
:103cd80083300000660c0000c37f0000c01f000096
:103ce800261d000081e000001c010000803000005b
:103cf80006000000c00c000000c100008fc00000da
:103d0800ff0300001c300000630700003033000090
:103d18000330000033030000303300000630000099
:103d2800cff00000ff98000026010000806100002d
:103d38001fc600001180000060180000160f000068
:103d4800feff0000b05800000c06000013f9000048
:103d580084c0000060300000181e0000001f000032
:103d6800230e00006026000000c000000c0f0000b9
:103d7800c06c000006c0000066060000306000004d
:103d8800f8f10000ec19000083300000660c000018
:103d9800ff9800003306000060cc00001983000083
:103da80078f00000f666000066660000666f0000a6
:103db8003c6100008618000061860000186d000054
:103dc800bcf30000e6080000610600002064000063
:103dd800078000006c060000606300000618000001
:103de80060cf00003ff000001806000001800000ce
:103df800601800000601000080600000181600002e
:103e08000bfe0000f00e000070380000e0710000aa
:103e1800e1620000c2c50000c989000093130000d8
:103e2800262300008c470000188400003388000017
:103e3800f0e00000ee090000c12c000025c40000dd
:103e48009c910000921a000041c80000190300006c
:103e5800702000001f06000031830000202c0000a5
:103e680007800000f01e000003c000006809000081
:103e780083180000c1f00000fe310000986c0000bb
:103e8800361b000019f80000c06000003018000060
:103e98001e0000001f06000031830000202c0000d7
:103ea80007800000f01e000003c000006819000031
:103eb80083180000c0e000000e000000e0070000ca
:103ec800fe0c00006186000030c6000018c6000025
:103ed8001f830000706700000c71000087780000e5
:103ee800701d0000319800004c07000080e00000c1
:103ef8001c07000001a00000d8cb0000c0ff000094
:103f0800f8ce000018830000006000000c010000db
:103f18008030000006000000c01800000780000084
:103f2800f0ec0000098100003026000004c0000009
:103f380098130000026000004c080000c20f000047
:103f480080f8000077020000302300000418000009
:103f5800418400000c800000c807000000700000c9
:103f68000200000020fb0000e7b00000c08c000049
:103f780020860000184100008c400000cb20000083
:103f8800659000001a7000000e380000031c000045
:103f9800010400000082000000fc0000f98300001a
:103fa8000610000019000000d0030000001c0000eb
:103fb8000130000011c100008608000019e300006c
:103fc800f0f80000f606000030410000881d0000ef
:103fd80000d000000600000060060000006000003d
:103fe80006000000f03f0000cc11000006010000b0
:103ff800807000000c03000000e00000380600009c
:1040080005c100007fe00000fb6d0000b6db00008a
:104018006db80000821000008210000086100000b9
:1040280086100000edb60000db6d0000b6f8000059
:10403800181c00003426000062420000c1ff000086
:10404800808400002079000098300000e6d9000044
:10405800b33f000020700000180c000006030000a9
:1040680071cc0000c3610000b0d800006c63000090
:10407800e03c0000cf0600000c180000189e00006d
:104088000103000080c0000060310000d99d0000dd
:1040980086c3000061b00000cc630000f03c000063
:1040a80046fe0000c0c00000e16200003c1e0000a7
:1040b80041830000061e00001830000060c10000a7
:1040c800830f0000003c000019f60000318c00004e
:1040d8001e08000004010000fc400000b02e000093
:1040e80011f8000020700000180c00000603000002
:1040f80071cc0000c663000031980000cc6f00004e
:104108007860000002e6000066660000f018000013
:10411800003300008c63000018c60000318b0000db
:1041280080200000701800000c060000033d00000d
:1041380088d8000078360000198c00006f780000dd
:104148002e6600006666000066660000f0ee00005d
:1041580071ce00006631000098c6000063190000a7
:104168008c66000031bd0000efee000039980000b9
:10417800cc660000331900008def00003e310000ce
:10418800b07800003c1e00000d8c00007cee0000a2
:10419800399800006c3600001b0d00008cfc0000f4
:1041a80060300000181e0000003d000031b0000023
:1041b800d86c0000361b00008cfe000003010000d4
:1041c80080c00000f06d0000c61800006186000085
:1041d8003c760000385800003e380000fe270000fa
:1041e80098c60000318c000038e7000031980000c4
:1041f800cc660000331900008c7f0000f3610000da
:1042080022320000141c000008080000ef360000ed
:104218006162000022320000354100009c18000055
:1042280081080000f71200000e03000001c1000021
:1042380021090000cff30000616200003234000061
:10424800141c00000808000008100000e0fd000031
:1042580018600000830c000070fe0000198c00003c
:1042680063180000c46100008c63000018c30000dc
:10427800fff00000c3180000c631000084330000be
:1042880018c600003198000070240000c1c000006a
:104298000000000000000000050000000100000010
:1042a80000000000020c000006020000f5000000fb
:1042b800030000000504000007010000f5000000ed
:1042c80006000000090c000009000000f5000000cd
:1042d80014000000080e000009010000f4000000ae
:1042e800220000000d0c00000f010000f500000086
:1042f800360000000d0d00000e010000f400000063
:104308004c0000000204000004010000f500000059
:104318004d000000050f000006010000f500000038
:1043280057000000050f000006000000f50000001f
:10433800610000000608000009030000f500000005
:1043480067000000090900000a000000f8000000ea
:1043580072000000020300000402000000000000d8
:10436800730000000401000006010000fd000000c9
:10437800740000000202000005010000ff000000b8
:1043880075000000050c000005000000f5000000a5
:104398007d000000090d000009000000f400000085
:1043a8008c000000050d000009020000f400000068
:1043b80095000000080c000009010000f50000004d
:1043c800a1000000080c000009000000f500000032
:1043d800ad000000070c000009010000f500000016
:1043e800b8000000080c000009000000f5000000fb
:1043f800c4000000080d000009010000f4000000de
:10440800d1000000080c000009000000f5000000c1
:10441800dd000000070d000009010000f4000000a5
:10442800e9000000080e000009010000f400000087
:10443800f70000000208000005010000f900000074
:10444800f9000000030a000005010000f90000005f
:10445800fd000000090900000a010000f800000042
:1044680008010000090500000a010000fa00000028
:104478000e0100000a0900000a000000f800000010
:104488001a010000070d000008010000f4000000f8
:10449800260100000c0d000010020000f4000000ce
:1044a8003a0100000d0c00000d000000f5000000ae
:1044b8004e0100000b0c00000b000000f50000008e
:1044c8005f0100000b0c00000c010000f50000006b
:1044d800700100000c0c00000d000000f500000049
:1044e800820100000a0c00000b010000f50000002a
:1044f80091010000090c00000a010000f50000000d
:104508009f0100000c0c00000d010000f5000000e8
:10451800b10100000b0c00000d010000f5000000c7
:10452800c2010000040c000006010000f5000000b4
:10453800c8010000060c000007000000f50000009c
:10454800d10100000c0c00000d010000f500000076
:10455800e30100000a0c00000b010000f500000058
:10456800f20100000f0c000010000000f500000030
:10457800090200000b0c00000d010000f50000000e
:104588001a0200000b0d00000d010000f4000000ed
:104598002c020000090c00000a010000f5000000d0
:1045a8003a0200000b1000000d010000f4000000aa
:1045b800500200000b0c00000c010000f500000088
:1045c80061020000090c00000a000000f50000006c
:1045d8006f0200000b0c00000b000000f50000004b
:1045e800800200000b0c00000d010000f500000027
:1045f800910200000c0c00000d000000f500000006
:10460800a3020000110c000011000000f5000000da
:10461800bd0200000d0c00000d000000f5000000b8
:10462800d10200000c0c00000d000000f500000095
:10463800e30200000b0c00000b000000f500000076
:10464800f4020000030f000006020000f50000005d
:10465800fa020000050c000005000000f50000004b
:1046680002030000030f000006010000f50000002f
:10467800080300000807000008000000f50000001b
:104688000f030000090100000900000002000000fb
:10469800110300000403000005000000f5000000fd
:1046a800130300000708000008010000f9000000db
:1046b8001a030000090d000009000000f4000000c2
:1046c800290300000708000008000000f9000000a6
:1046d80030030000090d000009000000f40000008c
:1046e8003f0300000808000008000000f90000006f
:1046f80047030000070d000007010000f400000058
:10470800530300000a0c000008000000f900000034
:1047180062030000090d000009000000f400000019
:1047280071030000040b000005010000f600000002
:1047380077030000050f000006000000f6000000e7
:1047480081030000090d000009010000f4000000c9
:1047580090030000040d000005010000f4000000b3
:10476800970300000e0800000e000000f90000008a
:10477800a50300000908000009000000f900000076
:10478800ae0300000908000009000000f90000005d
:10479800b7030000090c000009000000f900000040
:1047a800c5030000090c000009000000f900000022
:1047b800d30300000608000006000000f90000000e
:1047c800d90300000608000007010000f9000000f6
:1047d800df0300000509000005000000f8000000e4
:1047e800e50300000908000009000000f9000000c6
:1047f800ee0300000808000008000000f9000000af
:10480800f60300000c0800000c000000f90000008e
:10481800020400000908000009000000f900000077
:104828000b040000080c000008000000f90000005c
:10483800170400000708000007010000f900000045
:104848001e0400000510000009010000f40000002b
:1048580028040000010c000004010000f50000001d
:104868002a0400000510000009030000f5000000fc
:10487800340400000903000009000000fb000000e8
:10488800149d00004ca10000200000007e000000e4
:1048980016000000ffff0000f8c00000def700006f
:1048a800200900008641000091ff00001304000069
:1048b800c3200000c8ff000089820000619000004a
:1048c800101f000014da00003d1e000083400000a5
:1048d8007817000008f400007a35000033f0000073
:1048e8004020000038100000ec200000c620000026
:1048f800c6400000c64000006c800000390000007f
:10490800013c00000277000002630000046300001d
:1049180004770000083c00000e06000060cc000090
:1049280019810000e01800000f03000036c20000e3
:10493800d873000006310000e3c40000fe13000035
:10494800266c0000cccc0000c466000023100000d8
:104958008c4600006333000033320000664c0000d0
:10496800802500007ea5000000300000c33f000045
:1049780030c300000cd60000f0c00000084400005e
:10498800211000008442000011080000003c0000d3
:1049980066420000c3c30000c3c30000c3c30000d5
:1049a800c3420000663c0000113f000033330000a2
:1049b80033330000303e000031b000007830000092
:1049c800181c00001c1c000018180000100800002b
:1049d80007f800003c660000c3c30000030600009f
:1049e8001c07000003c30000c36600003c0c000065
:1049f8001871000062c90000a3460000fe180000fc
:104a080030600000c07f000020100000080800008f
:104a180007f300008c03000001800000f06c000028
:104a280063e000001e310000987800000c060000ca
:104a3800f38d000083c10000e0d000006c6300002b
:104a4800e0ff000003020000060400000c0800005c
:104a58001818000018100000303000003e31000027
:104a6800b07800003c1b000018f80000c6c1000028
:104a7800e0f000006c630000e03c000066c200004b
:104a8800c3c30000c36700003b03000003c200006b
:104a9800663c0000c000000030c0000000000000bc
:104aa80064a0000000810000c78e00000c07000011
:104ab800807000000e01000080ff000080000000f0
:104ac8001ff00000007000000e010000c018000078
:104ad80038710000c0800000003e000031b00000c6
:104ae800783000001818000038180000180c000072
:104af800000000000180000003f00000060e000026
:104b08000601000086000000661d0000bb310000a1
:104b1800cf180000c798000063cc000031e6000001
:104b280011b3000099cc0000f786000000010000d6
:104b380080000000704000000fe000000600000048
:104b4800f00f00000090000019810000981000008c
:104b5800830c00003fc200000460000066060000ed
:104b6800c0300000ff18000033030000606c000034
:104b78000d8300003fc6000006c00000780f00004b
:104b880001e000006ff800001f8600001981000096
:104b9800a03c0000018000003006000000c00000ba
:104ba800680d00008318000061f00000ff18000085
:104bb80033030000603c000007800000f01e000086
:104bc80003c00000780f000003600000cff0000071
:104bd800ffe00000301800000c06000003fd000094
:104be80080c0000060300000180f0000f8ff0000cf
:104bf800c0c00000c0c00000c0fe0000c0c000006f
:104c0800c0c00000c0c000000f8300000e6000009c
:104c180066030000c00c000000c10000fc03000097
:104c2800c036000003600000730f00000f10000082
:104c3800c07800000f010000e03c00000780000081
:104c4800fffe000003c00000780f000001e0000034
:104c58003c060000ffff0000ffc00000060c00003b
:104c68001830000060c10000830700008f1e00009c
:104c780027800000c0d80000330c0000630c00003f
:104c8800c1b800003f07000030c3000018630000ef
:104c9800066000006c0c0000c0c00000c0c000002e
:104ca800c0c00000c0c00000c0c00000c0c00000fc
:104cb800ffe000003f010000fc1f0000e0fd0000d5
:104cc80005ec00006f63000079130000cd9e000022
:104cd8006cf10000478e00003c71000080e000008d
:104ce8007c0f0000c1e800003d87000098f100003b
:104cf8001e330000c37800006f070000e07c00004e
:104d08000e0f000081830000180c0000c06c00002a
:104d180001e000000f00000078030000c01b000045
:104d2800019800000c600000c0f8000000ff0000bf
:104d3800306c00000f030000c0f000006ff30000ab
:104d480000c00000300c000003000000c00000009c
:104d58000f810000831800000cc000006c010000e7
:104d6800e00f00000078000003c000001b010000f5
:104d7800986c000060c00000fb00000008ff000005
:104d88008c0e0000c06c000006c000006c0c000017
:104d9800ff8c00000ec000006c060000c06c000014
:104da80006c00000703f0000186c00000f030000f0
:104db800c01e000001f000000e000000f03c0000e2
:104dc8000d8600003f000000ff8600000301000080
:104dd80080c0000060300000180c000006030000ce
:104de80001800000c0c00000780f000001e0000052
:104df8003c07000080f000001e030000c07800009f
:104e08000f010000b0610000f0c000006c0d000050
:104e180081100000630c00006104000060cc0000f9
:104e280019010000603c00000700000060c100009c
:104e380081300000e198000070cc00002866000076
:104e48002621000013300000c89800006c4c0000b8
:104e5800143400000a1a00000707000003030000ca
:104e68008081000080600000630c000030c10000f9
:104e7800980f000000e0000006000000f019000094
:104e88000198000030c600000e60000060c00000fd
:104e98003606000030c300000c19000081d800005d
:104ea8000f0000006006000000600000060000001f
:104eb8006006000000ff0000c0600000300c000029
:104ec8000603000001c00000603000001806000062
:104ed80003000000ffc00000fb6d0000b6db00000f
:104ee8006db60000e084000010840000108400000b
:104ef8001084000010800000edb60000db6d00009b
:104f0800b6db0000e030000060a2000044d80000da
:104f1800a1800000ffc00000c63000007e710000c4
:104f2800b0c0000060f30000db0d000086c7000081
:104f38003dc00000c0600000301b0000ce360000fd
:104f48000f07000083c10000e0f000007c6d000046
:104f5800e03c000066c30000c0c00000c0c0000004
:104f6800c36600003c030000030300003b67000029
:104f7800c3c30000c3c30000c3c30000673b0000f5
:104f88003c660000c3c30000ffc00000c0c30000af
:104f9800663c0000366f000066660000666600002a
:104fa800603b000067c30000c3c30000c3c3000028
:104fb800c36700003b03000003c600007cc000007c
:104fc800c0c00000dee30000c3c30000c3c300008c
:104fd800c3c30000c3c30000c3ff0000ffc000003c
:104fe8003003000033330000333300003333000054
:104ff800e0c0000060300000184c0000466300006c
:1050080061f00000ec620000319800006c30000094
:10501800ffff0000ffc00000def700001cf00000ea
:10502800c78600003c310000e18f00000c780000ca
:1050380063c300001e180000c0de0000e3c30000c8
:10504800c3c30000c3c30000c3c30000c33c0000c7
:1050580066c30000c3c30000c3c30000c3660000ea
:105068003cde000071b00000783c00001e0f00001c
:1050780007830000e36f0000301800000c000000f8
:105088003b670000c3c30000c3c30000c3c30000e4
:10509800673b00000303000003df0000318c0000c1
:1050a80063180000c60000003ee30000c0c0000016
:1050b800e03c000007c30000e37e000066f6000045
:1050c8006666000066670000c3c30000c3c3000033
:1050d800c3c30000c3c30000c77b0000c1a0000019
:1050e80098cc000042210000b0d00000281c00002d
:1050f8000c000000c61e000038910000c4ca000061
:1051080066d3000016d00000a68700001c380000f7
:10511800c0c6000000430000623600001c180000f2
:105128001c3c00002662000043c1000021980000da
:10513800cc42000061b00000d03800001c0c000018
:10514800060300000103000000fe00000c30000010
:10515800c186000018200000c1fc0000366600006f
:10516800666e0000ce6600006666000030ff000034
:10517800ffff0000ffc00000c66600006667000071
:105188003766000066660000c06100002438000031
:105198000000000000000000050000000100000001
:1051a80000000000020d000006020000f4000000ec
:1051b800040000000504000006010000f4000000df
:1051c800070000000a0c00000a000000f5000000bb
:1051d80016000000091000000a010000f30000009a
:1051e80028000000100d000010010000f40000006d
:1051f800420000000b0d00000c010000f40000004c
:10520800540000000204000004010000f400000043
:10521800550000000411000006010000f400000021
:105228005e0000000411000006010000f400000008
:10523800670000000505000007010000f4000000f9
:105248006b000000060800000b030000f9000000d6
:1052580071000000020400000502000000000000c8
:10526800720000000401000006010000fc000000bc
:1052780073000000020100000501000000000000aa
:1052880074000000050d000005000000f400000097
:105298007d000000080d00000a010000f400000075
:1052a8008a000000040d00000a030000f40000005a
:1052b80091000000090d00000a010000f400000040
:1052c800a0000000080d00000a010000f400000022
:1052d800ad000000070d00000a020000f400000005
:1052e800b9000000090d00000a010000f4000000e8
:1052f800c8000000090d00000a010000f4000000c9
:10530800d7000000080d00000a000000f4000000ab
:10531800e4000000090d00000a010000f40000008c
:10532800f3000000080d00000a010000f40000006e
:1053380000010000020a000005010000f70000005b
:1053480003010000030c000005010000f800000044
:1053580008010000090900000b010000f800000026
:1053680013010000090400000b010000fb0000000d
:1053780018010000090900000b010000f8000000f6
:1053880023010000090d00000a010000f4000000dc
:10539800320100001110000012010000f4000000aa
:1053a800540100000c0d00000c000000f400000087
:1053b800680100000b0d00000c010000f400000063
:1053c8007a0100000b0d00000d010000f400000040
:1053d8008c0100000b0d00000d010000f40000001e
:1053e8009e010000090d00000b010000f400000000
:1053f800ad010000080d00000b010000f4000000e2
:10540800ba0100000c0d00000e010000f4000000bd
:10541800ce0100000b0d00000d010000f40000009b
:10542800e0010000020d000005020000f400000089
:10543800e4010000070d00000a010000f40000006c
:10544800f00100000b0d00000c010000f40000004a
:1054580002020000080d00000a010000f40000002c
:105468000f0200000d0d00000f010000f400000005
:10547800250200000b0d00000d010000f4000000e3
:10548800370200000d0d00000e010000f4000000be
:105498004d0200000a0d00000c010000f40000009d
:1054a8005e0200000d0e00000e010000f400000076
:1054b800750200000c0d00000d010000f400000052
